{
  "contractName": "BettingContractFactory",
  "abi": [
    {
      "inputs": [],
      "stateMutability": "nonpayable",
      "type": "constructor"
    },
    {
      "anonymous": false,
      "inputs": [
        {
          "indexed": false,
          "internalType": "address",
          "name": "gameAddress",
          "type": "address"
        }
      ],
      "name": "NewGame",
      "type": "event"
    },
    {
      "inputs": [
        {
          "internalType": "uint256",
          "name": "",
          "type": "uint256"
        }
      ],
      "name": "bettingGames",
      "outputs": [
        {
          "internalType": "address",
          "name": "",
          "type": "address"
        }
      ],
      "stateMutability": "view",
      "type": "function",
      "constant": true
    },
    {
      "inputs": [],
      "name": "owner",
      "outputs": [
        {
          "internalType": "address",
          "name": "",
          "type": "address"
        }
      ],
      "stateMutability": "view",
      "type": "function",
      "constant": true
    },
    {
      "inputs": [
        {
          "internalType": "string",
          "name": "_team1",
          "type": "string"
        },
        {
          "internalType": "string",
          "name": "_team2",
          "type": "string"
        },
        {
          "internalType": "uint256",
          "name": "_endTime",
          "type": "uint256"
        }
      ],
      "name": "createNewGame",
      "outputs": [
        {
          "internalType": "address",
          "name": "",
          "type": "address"
        }
      ],
      "stateMutability": "nonpayable",
      "type": "function"
    }
  ],
  "bytecode": "0x608060405234801561001057600080fd5b5033600160006101000a81548173ffffffffffffffffffffffffffffffffffffffff021916908373ffffffffffffffffffffffffffffffffffffffff1602179055506123b7806100616000396000f3fe60806040523480156200001157600080fd5b5060043610620000465760003560e01c80638da5cb5b146200004b578063a43f08ab146200006d578063d70474b914620000a3575b600080fd5b62000055620000d9565b6040516200006491906200030f565b60405180910390f35b6200008b60048036038101906200008591906200037b565b620000ff565b6040516200009a91906200030f565b60405180910390f35b620000c16004803603810190620000bb91906200050f565b6200013f565b604051620000d091906200030f565b60405180910390f35b600160009054906101000a900473ffffffffffffffffffffffffffffffffffffffff1681565b600081815481106200011057600080fd5b906000526020600020016000915054906101000a900473ffffffffffffffffffffffffffffffffffffffff1681565b6000600160009054906101000a900473ffffffffffffffffffffffffffffffffffffffff1673ffffffffffffffffffffffffffffffffffffffff163373ffffffffffffffffffffffffffffffffffffffff1614620001d4576040517f08c379a0000000000000000000000000000000000000000000000000000000008152600401620001cb9062000630565b60405180910390fd5b6000848484604051620001e790620002bc565b620001f593929190620006e5565b604051809103906000f08015801562000212573d6000803e3d6000fd5b5090506000819080600181540180825580915050600190039060005260206000200160009091909190916101000a81548173ffffffffffffffffffffffffffffffffffffffff021916908373ffffffffffffffffffffffffffffffffffffffff1602179055507f70afdeea5872e39fcc84edc30bfbbdc4892e22020c423596b2e5c89f4fc2050981604051620002a991906200030f565b60405180910390a1809150509392505050565b611c51806200073183390190565b600073ffffffffffffffffffffffffffffffffffffffff82169050919050565b6000620002f782620002ca565b9050919050565b6200030981620002ea565b82525050565b6000602082019050620003266000830184620002fe565b92915050565b6000604051905090565b600080fd5b600080fd5b6000819050919050565b620003558162000340565b81146200036157600080fd5b50565b60008135905062000375816200034a565b92915050565b60006020828403121562000394576200039362000336565b5b6000620003a48482850162000364565b91505092915050565b600080fd5b600080fd5b6000601f19601f8301169050919050565b7f4e487b7100000000000000000000000000000000000000000000000000000000600052604160045260246000fd5b6200040282620003b7565b810181811067ffffffffffffffff82111715620004245762000423620003c8565b5b80604052505050565b6000620004396200032c565b9050620004478282620003f7565b919050565b600067ffffffffffffffff8211156200046a5762000469620003c8565b5b6200047582620003b7565b9050602081019050919050565b82818337600083830152505050565b6000620004a8620004a2846200044c565b6200042d565b905082815260208101848484011115620004c757620004c6620003b2565b5b620004d484828562000482565b509392505050565b600082601f830112620004f457620004f3620003ad565b5b81356200050684826020860162000491565b91505092915050565b6000806000606084860312156200052b576200052a62000336565b5b600084013567ffffffffffffffff8111156200054c576200054b6200033b565b5b6200055a86828701620004dc565b935050602084013567ffffffffffffffff8111156200057e576200057d6200033b565b5b6200058c86828701620004dc565b92505060406200059f8682870162000364565b9150509250925092565b600082825260208201905092915050565b7f4f6e6c79206f776e65722063616e206372656174652061206e65772067616d6560008201527f2e00000000000000000000000000000000000000000000000000000000000000602082015250565b600062000618602183620005a9565b91506200062582620005ba565b604082019050919050565b600060208201905081810360008301526200064b8162000609565b9050919050565b600081519050919050565b60005b838110156200067d57808201518184015260208101905062000660565b838111156200068d576000848401525b50505050565b6000620006a08262000652565b620006ac8185620005a9565b9350620006be8185602086016200065d565b620006c981620003b7565b840191505092915050565b620006df8162000340565b82525050565b6000606082019050818103600083015262000701818662000693565b9050818103602083015262000717818562000693565b9050620007286040830184620006d4565b94935050505056fe60806040526001600060146101000a81548160ff0219169083151502179055503480156200002c57600080fd5b5060405162001c5138038062001c51833981810160405281019062000052919062000369565b82600190805190602001906200006a929190620000e1565b50816002908051906020019062000083929190620000e1565b50326000806101000a81548173ffffffffffffffffffffffffffffffffffffffff021916908373ffffffffffffffffffffffffffffffffffffffff1602179055508042620000d2919062000432565b600881905550505050620004f3565b828054620000ef90620004be565b90600052602060002090601f0160209004810192826200011357600085556200015f565b82601f106200012e57805160ff19168380011785556200015f565b828001600101855582156200015f579182015b828111156200015e57825182559160200191906001019062000141565b5b5090506200016e919062000172565b5090565b5b808211156200018d57600081600090555060010162000173565b5090565b6000604051905090565b600080fd5b600080fd5b600080fd5b600080fd5b6000601f19601f8301169050919050565b7f4e487b7100000000000000000000000000000000000000000000000000000000600052604160045260246000fd5b620001fa82620001af565b810181811067ffffffffffffffff821117156200021c576200021b620001c0565b5b80604052505050565b60006200023162000191565b90506200023f8282620001ef565b919050565b600067ffffffffffffffff821115620002625762000261620001c0565b5b6200026d82620001af565b9050602081019050919050565b60005b838110156200029a5780820151818401526020810190506200027d565b83811115620002aa576000848401525b50505050565b6000620002c7620002c18462000244565b62000225565b905082815260208101848484011115620002e657620002e5620001aa565b5b620002f38482856200027a565b509392505050565b600082601f830112620003135762000312620001a5565b5b815162000325848260208601620002b0565b91505092915050565b6000819050919050565b62000343816200032e565b81146200034f57600080fd5b50565b600081519050620003638162000338565b92915050565b6000806000606084860312156200038557620003846200019b565b5b600084015167ffffffffffffffff811115620003a657620003a5620001a0565b5b620003b486828701620002fb565b935050602084015167ffffffffffffffff811115620003d857620003d7620001a0565b5b620003e686828701620002fb565b9250506040620003f98682870162000352565b9150509250925092565b7f4e487b7100000000000000000000000000000000000000000000000000000000600052601160045260246000fd5b60006200043f826200032e565b91506200044c836200032e565b9250827fffffffffffffffffffffffffffffffffffffffffffffffffffffffffffffffff0382111562000484576200048362000403565b5b828201905092915050565b7f4e487b7100000000000000000000000000000000000000000000000000000000600052602260045260246000fd5b60006002820490506001821680620004d757607f821691505b602082108103620004ed57620004ec6200048f565b5b50919050565b61174e80620005036000396000f3fe6080604052600436106100e85760003560e01c80638da5cb5b1161008a578063ce84a53b11610059578063ce84a53b146102b6578063de3f18e2146102f3578063e612c0ad1461031e578063f124bac214610349576100e8565b80638da5cb5b14610220578063979613e91461024b578063aef25e2714610274578063b88a802f1461029f576100e8565b8063686d4d94116100c6578063686d4d9414610174578063791e545c1461019f578063893d20e8146101ca5780638c8d2ede146101f5576100e8565b80633197cbb6146100ed57806343046844146101185780634a39ec9014610134575b600080fd5b3480156100f957600080fd5b50610102610374565b60405161010f9190610d06565b60405180910390f35b610132600480360381019061012d9190610d4b565b61037a565b005b34801561014057600080fd5b5061015b60048036038101906101569190610e02565b610633565b60405161016b9493929190610ed4565b60405180910390f35b34801561018057600080fd5b5061018961069a565b6040516101969190610d06565b60405180910390f35b3480156101ab57600080fd5b506101b46106a0565b6040516101c19190610d06565b60405180910390f35b3480156101d657600080fd5b506101df6106a6565b6040516101ec9190610f28565b60405180910390f35b34801561020157600080fd5b5061020a6106cf565b6040516102179190610fdc565b60405180910390f35b34801561022c57600080fd5b5061023561075d565b6040516102429190610f28565b60405180910390f35b34801561025757600080fd5b50610272600480360381019061026d9190610d4b565b610781565b005b34801561028057600080fd5b5061028961089b565b6040516102969190610d06565b60405180910390f35b3480156102ab57600080fd5b506102b46108a1565b005b3480156102c257600080fd5b506102dd60048036038101906102d89190610ffe565b610b31565b6040516102ea919061115c565b60405180910390f35b3480156102ff57600080fd5b50610308610c39565b604051610315919061117e565b60405180910390f35b34801561032a57600080fd5b50610333610c4c565b6040516103409190610fdc565b60405180910390f35b34801561035557600080fd5b5061035e610cda565b60405161036b9190611199565b60405180910390f35b60085481565b600060149054906101000a900460ff166103c9576040517f08c379a00000000000000000000000000000000000000000000000000000000081526004016103c090611200565b60405180910390fd5b60085442111561040e576040517f08c379a00000000000000000000000000000000000000000000000000000000081526004016104059061126c565b60405180910390fd5b60003411610451576040517f08c379a0000000000000000000000000000000000000000000000000000000008152600401610448906112fe565b60405180910390fd5b600460003373ffffffffffffffffffffffffffffffffffffffff1673ffffffffffffffffffffffffffffffffffffffff16815260200190815260200160002060405180608001604052803481526020018360028111156104b4576104b3610e42565b5b81526020016000151581526020014281525090806001815401808255809150506001900390600052602060002090600302016000909190919091506000820151816000015560208201518160010160006101000a81548160ff0219169083600281111561052457610523610e42565b5b021790555060408201518160010160016101000a81548160ff0219169083151502179055506060820151816002015550506000600281111561056957610568610e42565b5b81600281111561057c5761057b610e42565b5b0361059f573460056000828254610593919061134d565b92505081905550610630565b600160028111156105b3576105b2610e42565b5b8160028111156105c6576105c5610e42565b5b036105e95734600660008282546105dd919061134d565b9250508190555061062f565b6002808111156105fc576105fb610e42565b5b81600281111561060f5761060e610e42565b5b0361062e573460076000828254610626919061134d565b925050819055505b5b5b50565b6004602052816000526040600020818154811061064f57600080fd5b9060005260206000209060030201600091509150508060000154908060010160009054906101000a900460ff16908060010160019054906101000a900460ff16908060020154905084565b60075481565b60055481565b60008060009054906101000a900473ffffffffffffffffffffffffffffffffffffffff16905090565b600180546106dc906113d2565b80601f0160208091040260200160405190810160405280929190818152602001828054610708906113d2565b80156107555780601f1061072a57610100808354040283529160200191610755565b820191906000526020600020905b81548152906001019060200180831161073857829003601f168201915b505050505081565b60008054906101000a900473ffffffffffffffffffffffffffffffffffffffff1681565b60008054906101000a900473ffffffffffffffffffffffffffffffffffffffff1673ffffffffffffffffffffffffffffffffffffffff163373ffffffffffffffffffffffffffffffffffffffff161461080f576040517f08c379a00000000000000000000000000000000000000000000000000000000081526004016108069061144f565b60405180910390fd5b600854421015610854576040517f08c379a000000000000000000000000000000000000000000000000000000000815260040161084b906114bb565b60405180910390fd5b60008060146101000a81548160ff02191690831515021790555080600360006101000a81548160ff0219169083600281111561089357610892610e42565b5b021790555050565b60065481565b600060149054906101000a900460ff16156108f1576040517f08c379a00000000000000000000000000000000000000000000000000000000081526004016108e890611527565b60405180910390fd5b6000805b600460003373ffffffffffffffffffffffffffffffffffffffff1673ffffffffffffffffffffffffffffffffffffffff16815260200190815260200160002080549050811015610aa3576000600460003373ffffffffffffffffffffffffffffffffffffffff1673ffffffffffffffffffffffffffffffffffffffff168152602001908152602001600020828154811061099257610991611547565b5b906000526020600020906003020190506000816000015414806109c357508060010160019054906101000a900460ff165b156109ce5750610a90565b600360009054906101000a900460ff1660028111156109f0576109ef610e42565b5b8160010160009054906101000a900460ff166002811115610a1457610a13610e42565b5b03610a8e576000600554600754600654600554610a31919061134d565b610a3b919061134d565b610a459190611576565b478360000154610a5591906115aa565b610a5f9190611633565b905060018260010160016101000a81548160ff0219169083151502179055508084610a8a919061134d565b9350505b505b8080610a9b90611664565b9150506108f5565b5060008111610ae7576040517f08c379a0000000000000000000000000000000000000000000000000000000008152600401610ade906116f8565b60405180910390fd5b3373ffffffffffffffffffffffffffffffffffffffff166108fc829081150290604051600060405180830381858888f19350505050158015610b2d573d6000803e3d6000fd5b5050565b6060600460008373ffffffffffffffffffffffffffffffffffffffff1673ffffffffffffffffffffffffffffffffffffffff168152602001908152602001600020805480602002602001604051908101604052809291908181526020016000905b82821015610c2e5783829060005260206000209060030201604051806080016040529081600082015481526020016001820160009054906101000a900460ff166002811115610be457610be3610e42565b5b6002811115610bf657610bf5610e42565b5b81526020016001820160019054906101000a900460ff1615151515815260200160028201548152505081526020019060010190610b92565b505050509050919050565b600360009054906101000a900460ff1681565b60028054610c59906113d2565b80601f0160208091040260200160405190810160405280929190818152602001828054610c85906113d2565b8015610cd25780601f10610ca757610100808354040283529160200191610cd2565b820191906000526020600020905b815481529060010190602001808311610cb557829003601f168201915b505050505081565b600060149054906101000a900460ff1681565b6000819050919050565b610d0081610ced565b82525050565b6000602082019050610d1b6000830184610cf7565b92915050565b600080fd5b60038110610d3357600080fd5b50565b600081359050610d4581610d26565b92915050565b600060208284031215610d6157610d60610d21565b5b6000610d6f84828501610d36565b91505092915050565b600073ffffffffffffffffffffffffffffffffffffffff82169050919050565b6000610da382610d78565b9050919050565b610db381610d98565b8114610dbe57600080fd5b50565b600081359050610dd081610daa565b92915050565b610ddf81610ced565b8114610dea57600080fd5b50565b600081359050610dfc81610dd6565b92915050565b60008060408385031215610e1957610e18610d21565b5b6000610e2785828601610dc1565b9250506020610e3885828601610ded565b9150509250929050565b7f4e487b7100000000000000000000000000000000000000000000000000000000600052602160045260246000fd5b60038110610e8257610e81610e42565b5b50565b6000819050610e9382610e71565b919050565b6000610ea382610e85565b9050919050565b610eb381610e98565b82525050565b60008115159050919050565b610ece81610eb9565b82525050565b6000608082019050610ee96000830187610cf7565b610ef66020830186610eaa565b610f036040830185610ec5565b610f106060830184610cf7565b95945050505050565b610f2281610d98565b82525050565b6000602082019050610f3d6000830184610f19565b92915050565b600081519050919050565b600082825260208201905092915050565b60005b83811015610f7d578082015181840152602081019050610f62565b83811115610f8c576000848401525b50505050565b6000601f19601f8301169050919050565b6000610fae82610f43565b610fb88185610f4e565b9350610fc8818560208601610f5f565b610fd181610f92565b840191505092915050565b60006020820190508181036000830152610ff68184610fa3565b905092915050565b60006020828403121561101457611013610d21565b5b600061102284828501610dc1565b91505092915050565b600081519050919050565b600082825260208201905092915050565b6000819050602082019050919050565b61106081610ced565b82525050565b61106f81610e98565b82525050565b61107e81610eb9565b82525050565b60808201600082015161109a6000850182611057565b5060208201516110ad6020850182611066565b5060408201516110c06040850182611075565b5060608201516110d36060850182611057565b50505050565b60006110e58383611084565b60808301905092915050565b6000602082019050919050565b60006111098261102b565b6111138185611036565b935061111e83611047565b8060005b8381101561114f57815161113688826110d9565b9750611141836110f1565b925050600181019050611122565b5085935050505092915050565b6000602082019050818103600083015261117681846110fe565b905092915050565b60006020820190506111936000830184610eaa565b92915050565b60006020820190506111ae6000830184610ec5565b92915050565b7f42657474696e67206973206e6f74206163746976652e00000000000000000000600082015250565b60006111ea601683610f4e565b91506111f5826111b4565b602082019050919050565b60006020820190508181036000830152611219816111dd565b9050919050565b7f42657474696e6720706572696f642068617320656e6465642e00000000000000600082015250565b6000611256601983610f4e565b915061126182611220565b602082019050919050565b6000602082019050818103600083015261128581611249565b9050919050565b7f42657474696e6720616d6f756e74206d7573742062652067726561746572207460008201527f68616e20302e0000000000000000000000000000000000000000000000000000602082015250565b60006112e8602683610f4e565b91506112f38261128c565b604082019050919050565b60006020820190508181036000830152611317816112db565b9050919050565b7f4e487b7100000000000000000000000000000000000000000000000000000000600052601160045260246000fd5b600061135882610ced565b915061136383610ced565b9250827fffffffffffffffffffffffffffffffffffffffffffffffffffffffffffffffff038211156113985761139761131e565b5b828201905092915050565b7f4e487b7100000000000000000000000000000000000000000000000000000000600052602260045260246000fd5b600060028204905060018216806113ea57607f821691505b6020821081036113fd576113fc6113a3565b5b50919050565b7f4f6e6c79206f776e65722063616e20656e64207468652062657474696e672e00600082015250565b6000611439601f83610f4e565b915061144482611403565b602082019050919050565b600060208201905081810360008301526114688161142c565b9050919050565b7f42657474696e6720706572696f6420686173206e6f7420656e6465642e000000600082015250565b60006114a5601d83610f4e565b91506114b08261146f565b602082019050919050565b600060208201905081810360008301526114d481611498565b9050919050565b7f42657474696e67207374696c6c206163746976652e0000000000000000000000600082015250565b6000611511601583610f4e565b915061151c826114db565b602082019050919050565b6000602082019050818103600083015261154081611504565b9050919050565b7f4e487b7100000000000000000000000000000000000000000000000000000000600052603260045260246000fd5b600061158182610ced565b915061158c83610ced565b92508282101561159f5761159e61131e565b5b828203905092915050565b60006115b582610ced565b91506115c083610ced565b9250817fffffffffffffffffffffffffffffffffffffffffffffffffffffffffffffffff04831182151516156115f9576115f861131e565b5b828202905092915050565b7f4e487b7100000000000000000000000000000000000000000000000000000000600052601260045260246000fd5b600061163e82610ced565b915061164983610ced565b92508261165957611658611604565b5b828204905092915050565b600061166f82610ced565b91507fffffffffffffffffffffffffffffffffffffffffffffffffffffffffffffffff82036116a1576116a061131e565b5b600182019050919050565b7f4e6f2077696e6e696e677320746f20636c61696d2e0000000000000000000000600082015250565b60006116e2601583610f4e565b91506116ed826116ac565b602082019050919050565b60006020820190508181036000830152611711816116d5565b905091905056fea264697066735822122081ce1b711fa41d3b352d57e416f13f91b5b7c25b82c5b4d2ffcbb5145a8d3f1964736f6c634300080d0033a2646970667358221220634ea2f17b10a9edbc03e22d2566a555f2c054167b5d28aac99d74b804aeca7164736f6c634300080d0033",
  "immutableReferences": {},
  "source": "// SPDX-License-Identifier: MIT\r\npragma solidity >=0.7.0 <0.9.0;\r\n\r\nimport \"./BettingGame.sol\";\r\n\r\ncontract BettingContractFactory {\r\n    address[] public bettingGames;\r\n    address public owner;\r\n\r\n    event NewGame(address gameAddress);\r\n\r\n    constructor() {\r\n        owner = msg.sender;\r\n    }\r\n\r\n    modifier onlyOwner {\r\n        require(msg.sender == owner, \"Only owner can create a new game.\");\r\n        _;\r\n    }\r\n\r\n    function createNewGame(string memory _team1, string memory _team2, uint256 _endTime) public onlyOwner returns (address) {\r\n        BettingGame bg = new BettingGame(_team1, _team2, _endTime);\r\n        bettingGames.push(address(bg));\r\n        emit NewGame(address(bg));\r\n        return address(bg);\r\n    }\r\n\r\n}",
  "sourcePath": "D:\\blockchain_final\\truffle_env\\contracts\\BettingFactory.sol",
  "compiler": {
    "name": "solc",
    "version": "0.8.13+commit.abaa5c0e.Emscripten.clang"
  },
  "schemaVersion": "3.4.14",
  "updatedAt": "2023-06-08T19:42:33.775Z",
  "networkType": "ethereum",
  "devdoc": {
    "kind": "dev",
    "methods": {},
    "version": 1
  },
  "userdoc": {
    "kind": "user",
    "methods": {},
    "version": 1
  }
}